{
  "_format": "hh-sol-artifact-1",
  "contractName": "Raffle",
  "sourceName": "contracts/Raffle.sol",
  "abi": [
    {
      "inputs": [
        {
          "internalType": "address",
          "name": "vrfCoordinatorV2",
          "type": "address"
        },
        {
          "internalType": "uint256",
          "name": "entryFee",
          "type": "uint256"
        },
        {
          "internalType": "bytes32",
          "name": "gasLane",
          "type": "bytes32"
        },
        {
          "internalType": "uint64",
          "name": "subscriptionId",
          "type": "uint64"
        },
        {
          "internalType": "uint32",
          "name": "callBackGasLimit",
          "type": "uint32"
        },
        {
          "internalType": "uint256",
          "name": "interval",
          "type": "uint256"
        }
      ],
      "stateMutability": "nonpayable",
      "type": "constructor"
    },
    {
      "inputs": [
        {
          "internalType": "address",
          "name": "have",
          "type": "address"
        },
        {
          "internalType": "address",
          "name": "want",
          "type": "address"
        }
      ],
      "name": "OnlyCoordinatorCanFulfill",
      "type": "error"
    },
    {
      "inputs": [],
      "name": "Raffle__NotOpen",
      "type": "error"
    },
    {
      "inputs": [],
      "name": "Raffle__SendMoreToEnterRaffle",
      "type": "error"
    },
    {
      "inputs": [],
      "name": "Raffle__TransferFailed",
      "type": "error"
    },
    {
      "inputs": [
        {
          "internalType": "uint256",
          "name": "currentBalance",
          "type": "uint256"
        },
        {
          "internalType": "uint256",
          "name": "numPlayers",
          "type": "uint256"
        },
        {
          "internalType": "uint256",
          "name": "raffleState",
          "type": "uint256"
        }
      ],
      "name": "Raffle__UpkeepNotNeeded",
      "type": "error"
    },
    {
      "anonymous": false,
      "inputs": [
        {
          "indexed": true,
          "internalType": "address",
          "name": "player",
          "type": "address"
        }
      ],
      "name": "RaffleEnter",
      "type": "event"
    },
    {
      "anonymous": false,
      "inputs": [
        {
          "indexed": true,
          "internalType": "uint256",
          "name": "requestId",
          "type": "uint256"
        }
      ],
      "name": "RequestedRaffleWinner",
      "type": "event"
    },
    {
      "anonymous": false,
      "inputs": [
        {
          "indexed": true,
          "internalType": "address",
          "name": "winner",
          "type": "address"
        }
      ],
      "name": "WinnerPicked",
      "type": "event"
    },
    {
      "inputs": [
        {
          "internalType": "bytes",
          "name": "",
          "type": "bytes"
        }
      ],
      "name": "checkUpkeep",
      "outputs": [
        {
          "internalType": "bool",
          "name": "upkeepNeeded",
          "type": "bool"
        },
        {
          "internalType": "bytes",
          "name": "",
          "type": "bytes"
        }
      ],
      "stateMutability": "nonpayable",
      "type": "function"
    },
    {
      "inputs": [],
      "name": "enterRaffle",
      "outputs": [],
      "stateMutability": "payable",
      "type": "function"
    },
    {
      "inputs": [],
      "name": "getEntranceFee",
      "outputs": [
        {
          "internalType": "uint256",
          "name": "",
          "type": "uint256"
        }
      ],
      "stateMutability": "view",
      "type": "function"
    },
    {
      "inputs": [],
      "name": "getInterval",
      "outputs": [
        {
          "internalType": "uint256",
          "name": "",
          "type": "uint256"
        }
      ],
      "stateMutability": "view",
      "type": "function"
    },
    {
      "inputs": [],
      "name": "getLatestTimeStamp",
      "outputs": [
        {
          "internalType": "uint256",
          "name": "",
          "type": "uint256"
        }
      ],
      "stateMutability": "view",
      "type": "function"
    },
    {
      "inputs": [],
      "name": "getNumWords",
      "outputs": [
        {
          "internalType": "uint256",
          "name": "",
          "type": "uint256"
        }
      ],
      "stateMutability": "pure",
      "type": "function"
    },
    {
      "inputs": [],
      "name": "getNumberOfPlayers",
      "outputs": [
        {
          "internalType": "uint256",
          "name": "",
          "type": "uint256"
        }
      ],
      "stateMutability": "view",
      "type": "function"
    },
    {
      "inputs": [
        {
          "internalType": "uint256",
          "name": "index",
          "type": "uint256"
        }
      ],
      "name": "getPlayers",
      "outputs": [
        {
          "internalType": "address",
          "name": "",
          "type": "address"
        }
      ],
      "stateMutability": "view",
      "type": "function"
    },
    {
      "inputs": [],
      "name": "getRaffleState",
      "outputs": [
        {
          "internalType": "enum Raffle.RaffleState",
          "name": "",
          "type": "uint8"
        }
      ],
      "stateMutability": "view",
      "type": "function"
    },
    {
      "inputs": [],
      "name": "getRecentWinner",
      "outputs": [
        {
          "internalType": "address",
          "name": "",
          "type": "address"
        }
      ],
      "stateMutability": "view",
      "type": "function"
    },
    {
      "inputs": [],
      "name": "getRequestConfirmations",
      "outputs": [
        {
          "internalType": "uint256",
          "name": "",
          "type": "uint256"
        }
      ],
      "stateMutability": "pure",
      "type": "function"
    },
    {
      "inputs": [],
      "name": "getSubscriptionId",
      "outputs": [
        {
          "internalType": "uint256",
          "name": "",
          "type": "uint256"
        }
      ],
      "stateMutability": "view",
      "type": "function"
    },
    {
      "inputs": [
        {
          "internalType": "bytes",
          "name": "",
          "type": "bytes"
        }
      ],
      "name": "performUpkeep",
      "outputs": [],
      "stateMutability": "nonpayable",
      "type": "function"
    },
    {
      "inputs": [
        {
          "internalType": "uint256",
          "name": "requestId",
          "type": "uint256"
        },
        {
          "internalType": "uint256[]",
          "name": "randomWords",
          "type": "uint256[]"
        }
      ],
      "name": "rawFulfillRandomWords",
      "outputs": [],
      "stateMutability": "nonpayable",
      "type": "function"
    }
  ],
  "bytecode": "0x6101606040523480156200001257600080fd5b50604051620018b8380380620018b88339818101604052810190620000389190620001ad565b858073ffffffffffffffffffffffffffffffffffffffff1660808173ffffffffffffffffffffffffffffffffffffffff1660601b81525050508460a081815250508573ffffffffffffffffffffffffffffffffffffffff1660c08173ffffffffffffffffffffffffffffffffffffffff1660601b815250508360e081815250508267ffffffffffffffff166101008167ffffffffffffffff1660c01b815250508163ffffffff166101208163ffffffff1660e01b815250506000600160146101000a81548160ff02191690836001811115620001195762000118620002b5565b5b0217905550426002819055508061014081815250505050505050506200036b565b6000815190506200014b81620002e9565b92915050565b600081519050620001628162000303565b92915050565b60008151905062000179816200031d565b92915050565b600081519050620001908162000337565b92915050565b600081519050620001a78162000351565b92915050565b60008060008060008060c08789031215620001cd57620001cc620002e4565b5b6000620001dd89828a016200013a565b9650506020620001f089828a0162000168565b95505060406200020389828a0162000151565b94505060606200021689828a0162000196565b93505060806200022989828a016200017f565b92505060a06200023c89828a0162000168565b9150509295509295509295565b6000620002568262000267565b9050919050565b6000819050919050565b600073ffffffffffffffffffffffffffffffffffffffff82169050919050565b6000819050919050565b600063ffffffff82169050919050565b600067ffffffffffffffff82169050919050565b7f4e487b7100000000000000000000000000000000000000000000000000000000600052602160045260246000fd5b600080fd5b620002f48162000249565b81146200030057600080fd5b50565b6200030e816200025d565b81146200031a57600080fd5b50565b620003288162000287565b81146200033457600080fd5b50565b620003428162000291565b81146200034e57600080fd5b50565b6200035c81620002a1565b81146200036857600080fd5b50565b60805160601c60a05160c05160601c60e0516101005160c01c6101205160e01c610140516114ca620003ee6000396000818161088301526108f1015260006106eb0152600081816106c80152610919015260006106a70152600061066b015260008181610340015261043d01526000818161037d01526103d101526114ca6000f3fe6080604052600436106100dd5760003560e01c8063473f1ddc1161007f5780636e04ff0d116100595780636e04ff0d1461027d57806391ad27b4146102bb578063de3d9fb7146102e6578063fd6673f514610311576100dd565b8063473f1ddc146101fc57806353a2c19a146102275780635f1b0fd814610252576100dd565b80632cfcc539116100bb5780632cfcc53914610161578063320229eb1461016b5780634585e33b14610196578063460e2049146101bf576100dd565b806309bc33a7146100e2578063115cbaf51461010d5780631fe543e314610138575b600080fd5b3480156100ee57600080fd5b506100f761033c565b60405161010491906110d0565b60405180910390f35b34801561011957600080fd5b50610122610364565b60405161012f91906110b5565b60405180910390f35b34801561014457600080fd5b5061015f600480360381019061015a9190610ea9565b61037b565b005b61016961043b565b005b34801561017757600080fd5b506101806105aa565b60405161018d91906110d0565b60405180910390f35b3480156101a257600080fd5b506101bd60048036038101906101b89190610db9565b6105b4565b005b3480156101cb57600080fd5b506101e660048036038101906101e19190610e4f565b6107b3565b6040516101f39190610fee565b60405180910390f35b34801561020857600080fd5b506102116107fa565b60405161021e9190610fee565b60405180910390f35b34801561023357600080fd5b5061023c610824565b60405161024991906110d0565b60405180910390f35b34801561025e57600080fd5b50610267610833565b60405161027491906110d0565b60405180910390f35b34801561028957600080fd5b506102a4600480360381019061029f9190610e06565b610840565b6040516102b2929190611032565b60405180910390f35b3480156102c757600080fd5b506102d06108ed565b6040516102dd91906110d0565b60405180910390f35b3480156102f257600080fd5b506102fb610915565b60405161030891906110d0565b60405180910390f35b34801561031d57600080fd5b50610326610947565b60405161033391906110d0565b60405180910390f35b60007f0000000000000000000000000000000000000000000000000000000000000000905090565b6000600160149054906101000a900460ff16905090565b7f000000000000000000000000000000000000000000000000000000000000000073ffffffffffffffffffffffffffffffffffffffff163373ffffffffffffffffffffffffffffffffffffffff161461042d57337f00000000000000000000000000000000000000000000000000000000000000006040517f1cf993f4000000000000000000000000000000000000000000000000000000008152600401610424929190611009565b60405180910390fd5b6104378282610953565b5050565b7f0000000000000000000000000000000000000000000000000000000000000000341015610495576040517f3038c00a00000000000000000000000000000000000000000000000000000000815260040160405180910390fd5b600060018111156104a9576104a86113aa565b5b600160149054906101000a900460ff1660018111156104cb576104ca6113aa565b5b14610502576040517f1425571c00000000000000000000000000000000000000000000000000000000815260040160405180910390fd5b6000339080600181540180825580915050600190039060005260206000200160009091909190916101000a81548173ffffffffffffffffffffffffffffffffffffffff021916908373ffffffffffffffffffffffffffffffffffffffff1602179055503373ffffffffffffffffffffffffffffffffffffffff167f0805e1d667bddb8a95f0f09880cf94f403fb596ce79928d9f29b74203ba284d460405160405180910390a2565b6000600254905090565b60006105ce60405180602001604052806000815250610840565b5090508061063d5747600080549050600160149054906101000a900460ff1660018111156105ff576105fe6113aa565b5b6040517f584327aa000000000000000000000000000000000000000000000000000000008152600401610634939291906110eb565b60405180910390fd5b60018060146101000a81548160ff02191690836001811115610662576106616113aa565b5b021790555060007f000000000000000000000000000000000000000000000000000000000000000073ffffffffffffffffffffffffffffffffffffffff16635d3b1d307f00000000000000000000000000000000000000000000000000000000000000007f000000000000000000000000000000000000000000000000000000000000000060037f000000000000000000000000000000000000000000000000000000000000000060016040518663ffffffff1660e01b815260040161072c959493929190611062565b602060405180830381600087803b15801561074657600080fd5b505af115801561075a573d6000803e3d6000fd5b505050506040513d601f19601f8201168201806040525081019061077e9190610e7c565b9050807fcd6e45c8998311cab7e9d4385596cac867e20a0587194b954fa3a731c93ce78b60405160405180910390a250505050565b60008082815481106107c8576107c76113d9565b5b9060005260206000200160009054906101000a900473ffffffffffffffffffffffffffffffffffffffff169050919050565b6000600160009054906101000a900473ffffffffffffffffffffffffffffffffffffffff16905090565b6000600163ffffffff16905090565b6000600361ffff16905090565b600060606000600160149054906101000a900460ff166001811115610868576108676113aa565b5b6000600181111561087c5761087b6113aa565b5b14905060007f0000000000000000000000000000000000000000000000000000000000000000600254426108b091906111cb565b119050600080600080549050119050600080471190508380156108d05750825b80156108d95750815b80156108e25750805b955050505050915091565b60007f0000000000000000000000000000000000000000000000000000000000000000905090565b60007f000000000000000000000000000000000000000000000000000000000000000067ffffffffffffffff16905090565b60008080549050905090565b600080805490508260008151811061096e5761096d6113d9565b5b6020026020010151610980919061131b565b90506000808281548110610997576109966113d9565b5b9060005260206000200160009054906101000a900473ffffffffffffffffffffffffffffffffffffffff16905080600160006101000a81548173ffffffffffffffffffffffffffffffffffffffff021916908373ffffffffffffffffffffffffffffffffffffffff1602179055506000600160146101000a81548160ff02191690836001811115610a2b57610a2a6113aa565b5b0217905550600067ffffffffffffffff811115610a4b57610a4a611408565b5b604051908082528060200260200182016040528015610a795781602001602082028036833780820191505090505b5060009080519060200190610a8f929190610b84565b504260028190555060008173ffffffffffffffffffffffffffffffffffffffff1647604051610abd90610fd9565b60006040518083038185875af1925050503d8060008114610afa576040519150601f19603f3d011682016040523d82523d6000602084013e610aff565b606091505b5050905080610b3a576040517fa1d04b3900000000000000000000000000000000000000000000000000000000815260040160405180910390fd5b8173ffffffffffffffffffffffffffffffffffffffff167f5b690ec4a06fe979403046eaeea5b3ce38524683c3001f662c8b5a829632f7df60405160405180910390a25050505050565b828054828255906000526020600020908101928215610bfd579160200282015b82811115610bfc5782518260006101000a81548173ffffffffffffffffffffffffffffffffffffffff021916908373ffffffffffffffffffffffffffffffffffffffff16021790555091602001919060010190610ba4565b5b509050610c0a9190610c0e565b5090565b5b80821115610c27576000816000905550600101610c0f565b5090565b6000610c3e610c3984611147565b611122565b90508083825260208201905082856020860282011115610c6157610c60611441565b5b60005b85811015610c915781610c778882610d8f565b845260208401935060208301925050600181019050610c64565b5050509392505050565b6000610cae610ca984611173565b611122565b905082815260208101848484011115610cca57610cc9611446565b5b610cd58482856112a8565b509392505050565b600082601f830112610cf257610cf161143c565b5b8135610d02848260208601610c2b565b91505092915050565b60008083601f840112610d2157610d2061143c565b5b8235905067ffffffffffffffff811115610d3e57610d3d611437565b5b602083019150836001820283011115610d5a57610d59611441565b5b9250929050565b600082601f830112610d7657610d7561143c565b5b8135610d86848260208601610c9b565b91505092915050565b600081359050610d9e8161147d565b92915050565b600081519050610db38161147d565b92915050565b60008060208385031215610dd057610dcf611450565b5b600083013567ffffffffffffffff811115610dee57610ded61144b565b5b610dfa85828601610d0b565b92509250509250929050565b600060208284031215610e1c57610e1b611450565b5b600082013567ffffffffffffffff811115610e3a57610e3961144b565b5b610e4684828501610d61565b91505092915050565b600060208284031215610e6557610e64611450565b5b6000610e7384828501610d8f565b91505092915050565b600060208284031215610e9257610e91611450565b5b6000610ea084828501610da4565b91505092915050565b60008060408385031215610ec057610ebf611450565b5b6000610ece85828601610d8f565b925050602083013567ffffffffffffffff811115610eef57610eee61144b565b5b610efb85828601610cdd565b9150509250929050565b610f0e816111ff565b82525050565b610f1d81611211565b82525050565b610f2c8161121d565b82525050565b6000610f3d826111a4565b610f4781856111af565b9350610f578185602086016112b7565b610f6081611455565b840191505092915050565b610f7481611296565b82525050565b6000610f876000836111c0565b9150610f9282611466565b600082019050919050565b610fa68161123a565b82525050565b610fb581611268565b82525050565b610fc481611272565b82525050565b610fd381611282565b82525050565b6000610fe482610f7a565b9150819050919050565b60006020820190506110036000830184610f05565b92915050565b600060408201905061101e6000830185610f05565b61102b6020830184610f05565b9392505050565b60006040820190506110476000830185610f14565b81810360208301526110598184610f32565b90509392505050565b600060a0820190506110776000830188610f23565b6110846020830187610fca565b6110916040830186610f9d565b61109e6060830185610fbb565b6110ab6080830184610fbb565b9695505050505050565b60006020820190506110ca6000830184610f6b565b92915050565b60006020820190506110e56000830184610fac565b92915050565b60006060820190506111006000830186610fac565b61110d6020830185610fac565b61111a6040830184610fac565b949350505050565b600061112c61113d565b905061113882826112ea565b919050565b6000604051905090565b600067ffffffffffffffff82111561116257611161611408565b5b602082029050602081019050919050565b600067ffffffffffffffff82111561118e5761118d611408565b5b61119782611455565b9050602081019050919050565b600081519050919050565b600082825260208201905092915050565b600081905092915050565b60006111d682611268565b91506111e183611268565b9250828210156111f4576111f361134c565b5b828203905092915050565b600061120a82611248565b9050919050565b60008115159050919050565b6000819050919050565b600081905061123582611469565b919050565b600061ffff82169050919050565b600073ffffffffffffffffffffffffffffffffffffffff82169050919050565b6000819050919050565b600063ffffffff82169050919050565b600067ffffffffffffffff82169050919050565b60006112a182611227565b9050919050565b82818337600083830152505050565b60005b838110156112d55780820151818401526020810190506112ba565b838111156112e4576000848401525b50505050565b6112f382611455565b810181811067ffffffffffffffff8211171561131257611311611408565b5b80604052505050565b600061132682611268565b915061133183611268565b9250826113415761134061137b565b5b828206905092915050565b7f4e487b7100000000000000000000000000000000000000000000000000000000600052601160045260246000fd5b7f4e487b7100000000000000000000000000000000000000000000000000000000600052601260045260246000fd5b7f4e487b7100000000000000000000000000000000000000000000000000000000600052602160045260246000fd5b7f4e487b7100000000000000000000000000000000000000000000000000000000600052603260045260246000fd5b7f4e487b7100000000000000000000000000000000000000000000000000000000600052604160045260246000fd5b600080fd5b600080fd5b600080fd5b600080fd5b600080fd5b600080fd5b6000601f19601f8301169050919050565b50565b6002811061147a576114796113aa565b5b50565b61148681611268565b811461149157600080fd5b5056fea26469706673582212209067c3fc048d0ed318d0ebb601aa76ec3e8815eefd2e183fb02ba409b0051b7464736f6c63430008070033",
  "linkReferences": {},
  "deployedLinkReferences": {}
}